:10000000002800202904000049030000ED850000BD
:100010006985000091850000B9850000000000009E
:1000200000000000000000000000000061850000EA
:100030006585000000000000638500005303000098
:100040007DB40000A9D80000CD01000091B40000EB
:1000500009CD0000710100009101000081A20000A3
:1000600081A400005DB1000041A200006DA200006B
:1000700053A200001BCD0000D3A30000C9D800008C
:1000800049A300004701000039010000950200006B
:1000900041A4000045A400008DB60000DDB30000BF
:1000A00095A20000A3B4000059A40000E9B200002A
:1000B0002DA30000EBD80000CDB400005D010000CE
:1000C0006DA400007D020000E5A30000C1A30000B4
:1000D0000BA40000E9B300001DA40000CBB3000096
:1000E00000000000000000007CE4000070E400005C
:1000F00074E4000078E400006CE4000000000000FC
:1001000000000000000000000000000000000000EF
:100110000000000000000000024BD3F8AC01C0F367
:10012000410070470020004003289CBF014BC3F8EA
:10013000BC0170470020004008B501F04BF8BDE855
:1001400008400AF074B908B50AF028F90122024BF8
:100150001B685A7108BD00BF7400002008B50AF082
:1001600026F90222014B1B685A7108BD7400002059
:10017000002208B5054B1A7001F0DAFA01F078F8A0
:1001800001F02BF8BDE808400AF050BFA60000209F
:10019000002310B5074C237001F04CFB01F0B4F8BC
:1001A000237813F0FD0F01D101F0A6FBBDE810404C
:1001B0000AF0A0BEA60000204FF08042024B03448C
:1001C000C2F88830704700BF082E00202DE9F843A0
:1001D0004FF08044D4F82C3343F00103C4F82C339F
:1001E000636F580558BFD4F8E874D4F8E45448BF96
:1001F0000127C5F30B05A5F55063CF2BD4F8E434E4
:100200000ED8D903A8B205D5D4F8EC14BDE8F8434C
:1002100007F02BBB07F0DCFBC4F88802BDE8F883CD
:10022000DA03FBD500264FF08048124B124C1B69B5
:10023000A5F54069EB1A04EB8304B742EED0D8F879
:100240007430A8195B0554BF2168D8F8EC14B9F1D3
:10025000FF0F05D880B20DF09BF901360434ECE7AE
:10026000002209F0D5FC00221020114609F090FB75
:10027000F3E700BF283000201431002008B50DF04E
:1002800045FB0DF054FB032803D1BDE8084000F006
:1002900063BF08BD08B50BF07FF90DF048FB0328DC
:1002A0000AD1064B1B689B7803F00F03052B03D183
:1002B000BDE8084007F00EB908BD00BF840000206B
:1002C0000BF07ABA10B54FF08044D4F8043243F002
:1002D0000403C4F804320DF02AFB03210122032891
:1002E0000CBF044B044BC4F85032044BC4F8C41088
:1002F0001A6010BD366E01004A5D050000E100E0A5
:1003000008B50DF014FB4FF0804303280CBF024AE0
:10031000024AC3F8502208BD366E01004A5D05004E
:100320004FF08043012200210648C3F8C410C3F8EF
:100330001423C0F88020D3F8042261F38202C3F8AA
:100340000422704700E100E0684620F007018D4676
:10035000FEE7684620F007018D46FEE703460020D1
:100360008B4200D3704753F8042B1044F8E7F8B5DC
:100370004FF6FF774FF0FF3C0D480E490E4BC489F6
:100380004E8A0A8A5B8A0D4DA4B29BB2BC42B6B2B9
:1003900092B22B80C5F804C06F8007D0B44205D15B
:1003A0009A4203D1FFF7DAFF00B96C800020F8BD54
:1003B00000080000E0FF0000E0070000000000204F
:1003C000154B164A16498B4214D3164BD3E9041227
:1003D0008A4203D0891A9869824210D3D3E907125E
:1003E000891A586A82420FD300209A6AD96A8A42CF
:1003F0000FD3704752F8040B43F8040BE3E750584F
:10040000043242F8040CE6E75058043242F8040C77
:10041000E7E742F8040BE9E7000000204004000091
:100420000C00002000080000684620F007018D46FF
:1004300008B508F0EFF8FFF7C3FF00F0EDFAFEE7AC
:10044000FFFFFFFFFFFFFFFFFFFFFFFFFFFFFFFFBC
:10045000FFFFFFFFFFFFFFFFFFFFFFFFFFFFFFFFAC
:10046000FFFFFFFFFFFFFFFFFFFFFFFFFFFFFFFF9C
:10047000FFFFFFFFFFFFFFFFFFFFFFFFFFFFFFFF8C
:1007E0005357343931313000424F4F54CCF9102631
:1007F00001030103000000000000000000000000F1
:100800005357343931313000434F52450000010312
:10081000000800000008000080E4000080E4000000
:100820000C0000208C0000208C000020A81D00205F
:10083000D4030020000000010101020202030304AE
:100840000405050606060607070808090909090A36
:100850000A0A0A0B0B0C0C0D0D0D0D0E0E0F0F0FCF
:100860000F10101010111112121313141414141568
:10087000151616161617171818191919191A1A1BFA
:100880001B1B1B1C1C1C1C1D1D1E1E1F1F20202192
:100890002121212222222223232323242425252629
:1008A000262626272728282929292A2A2C2B2C2CBA
:1008B0002C2D2D2D2D00000004FF0000FF01000055
:1008C0000100000003FF0000FF0001000000000025
:1008D00003FF0000FF010000000000000300FF0113
:1008E000000001000000000003FF00010000010003
:1008F0000000000008FF00FFFF00FF01FF010001F2
:10090000010001FF010000000701010001FF01FFDC
:1009100000FFFF00FF01FF000000000006FF01FFD5
:1009200000FFFF00FF01FF010000000000000000C9
:1009300005FFFF00FF01FF010001010000000000B2
:100940000000000006FFFF00FF01FF0100010100A1
:1009500001000000000000000501FF01000101008E
:1009600001FF010000000000000000000601FF017F
:100970000001010001FF01FF000000000000000075
:100980000401010001FF01FF000000000000000061
:10099000000000000501010001FF01FF00FFFF0052
:1009A00000000000000000000C4A002112F5807FCA
:1009B0002CBF01234123013B09D1094940F2811297
:1009C00011F5C06F28BF0122013A03D1704742F8E8
:1009D000041BF0E741F8043BF6E700BF082F0020B6
:1009E000002800200A4AD2E90713C91A506A834234
:1009F00005D30020936AD16A8B4205D370475858BB
:100A0000043343F8040CF1E743F8040BF3E700BFA9
:100A1000000001000020704708B5FFF7C5FFFFF791
:100A2000E1FFFFF74DFC054A054BD28A110A5970C8
:100A30001A7000F04BF8002008BD00BFE04F010025
:100A40000830002038B5174C174A184B25682A6023
:100A5000C5F8343100F06AF8A860256800F06CF839
:100A6000E860256800F0AAFB2861256800F0ACFB6F
:100A70006861256802F0BEFAA861256802F0C0FA34
:100A8000E861256807F0ACF82862256807F0AEF841
:100A9000686225680DF042FC2368054AA862DA62A4
:100AA00038BD00BF0C000020000001000044010020
:100AB00060410020044B4FF48072186850F8343BBA
:100AC000196907F0D7BC00BF0C00002008B50DF075
:100AD000B1FCFFF7B7FFFFF7EDFF06F00BFD30BFEE
:100AE000FFF70EFC09F06EF90728F8D1044B5B8A7A
:100AF0009BB20BB9034B5B8A00F024F8002008BDC1
:100B0000E0070000E0FF0000014B1860704700BFE5
:100B100034050020014B1868704700BF34050020E1
:100B2000014B5860704700BF34050020014B5868E6
:100B3000704700BF34050020014B1868704700BFA4
:100B40007000002038B50E4B1D686C6B24B10DF0A1
:100B5000D1FB01462846A0470CF0E9FE18B10CF085
:100B6000E6FE022807D10320012806D00328FBD186
:100B700000F0BFF9F8E70120F6E700F088F8F3E7A6
:100B80000C000020002210B5094C23685A725A60EC
:100B90000DF0BCFB074B084A1B6803280CBF587CB0
:100BA000187C136821681B784343CB6010BD00BFDD
:100BB0007000002034050020380500202DE9F8439E
:100BC0002E4D2F4F2B682F4E5C7A0DF09FFB3B680C
:100BD00003280CBF597C197C33682A681B78DFF81E
:100BE000A8804B43D36041F29043D8F80020C1461F
:100BF000D35CE3B10DF08AFB032818D13B68DB7CA2
:100C000033B141F22853D8F80020D35803B9022455
:100C10002B685A7AA2422FD0012C5C7227D13268FD
:100C200012781A612046BDE8F84300F0A9BFD9F850
:100C300000102B6801F5A752127802B91CB90022E6
:100C400001245A60E4E75A68D8688242BEBF5A68F5
:100C500001325A605A7A022ADAD05B689842D7DCAD
:100C60003B68DB7C43B141F22853CB58CEE7022CE2
:100C7000D8D132685278D4E7BDE8F88370000020FC
:100C80003405002038050020740000207047F0B5BE
:100C900085B0FFF717FB00248E4D8F4EFFF730FB1A
:100CA000072C1DD8DFE814F0140108002C003100D7
:100CB000120138003C0027000DF028FB012809D064
:100CC00001200DF07FFBFFF75DFF01F037F80120F9
:100CD00000F01CFC00F0E6FB002818BF032430BF26
:100CE0000CF025FE38B10CF022FE022803D000F0F3
:100CF000EFFB0128D2D1FFF713FB032005B0F0BDB5
:100D000000F0E8FE30BF0324EAE700F09BFE01207C
:100D100000F028FF0424E3E702F056FC0624DFE796
:100D200000F0C0FB002800F0D380FFF747FF00F081
:100D3000D5FE00F0D9FC00F05FFC00F071FC00F083
:100D400083FC00F095FC00F0A7FC00F0B9FC00F07B
:100D5000B3FD01F053FB002800F0B8806B681B78EE
:100D6000012BDFB21DD100F013FF336838461A792A
:100D700002A98DF80820DA788DF809208DF80A206C
:100D80001B788DF80B30554B1B68DB688DF80C30E9
:100D900002238DF80D30524B009300231A4606F0C3
:100DA000E5FB6B681B78032BDFB222D100F03EFF1E
:100DB0003268384613798DF80830D378991C8DF84D
:100DC00009308DF80A10127803F213538DF80B20B6
:100DD000424A02A91268D2688DF80C2082228DF84E
:100DE0000D203F4A02EB4303009300231A4606F00E
:100DF000BDFB6B681B78022BDFB21CD100F036FF05
:100E0000336838461A7902A98DF80820DA788DF807
:100E100009208DF80A201B788DF80B302F4B1B68AA
:100E2000DB688DF80D708DF80C302E4B009300238D
:100E30001A4606F09BFB6B681B78042BDFB21FD1B0
:100E400000F050FF3268384613798DF80830D378B7
:100E5000991C8DF809308DF80A10127802A98DF8C6
:100E60000B201E4A1268D2688DF80C2001228DF8E2
:100E70000D201D4A1344009300231A4606F076FB0A
:100E80006B681B78072BDFB21DD100F04BFF336876
:100E900038461A7902A98DF80820DA788DF80920E9
:100EA0008DF80A201B788DF80B300C4B1B68DB6823
:100EB0008DF80C3082238DF80D300C4B00930023FD
:100EC0001A4606F053FB00F008FE09E7052407E781
:100ED000012405E714000020180400203008000059
:100EE00060410020704600207351002068540020AB
:100EF0007047F0B585B0FFF7E5F900248F4D904EAF
:100F0000FFF7FEF9072C1CD8DFE804F00407292EB0
:100F100036393E2430BF012413E00DF0F7F90328E1
:100F200009D003200DF04EFAFFF72CFE00F006FF6B
:100F3000012000F0EBFA00F0B5FA002818BF0324F6
:100F400030BF0CF0F4FC012840F0F28000F0C0FA51
:100F50000028D5D1FFF7E4F9012005B0F0BD00F07D
:100F6000B9FD30BF0024ECE700F06CFD032000F079
:100F7000F9FD30BF0424E4E730BF0524E1E702F0C7
:100F800023FB30BF0624DCE700F08CFA0028C2D037
:100F9000FFF714FE00F0A2FD00F0A6FB00F02CFB12
:100FA00000F03EFB00F050FB00F062FB00F074FB31
:100FB00000F086FB00F080FC01F020FA0028DCD075
:100FC0006B681B78012BDFB21DD100F0E1FD3368A7
:100FD00038461A7902A98DF80820DA788DF80920A8
:100FE0008DF80A201B788DF80B30564B1B68DB6898
:100FF0008DF80C3002238DF80D30534B00930023F5
:101000001A4606F0B3FA6B681B78032BDFB222D1C5
:1010100000F00CFE3268384613798DF80830D3782A
:10102000991C8DF809308DF80A10127803F21353C9
:101030008DF80B20434A02A91268D2688DF80C2063
:1010400082228DF80D20404A02EB430300930023D7
:101050001A4606F08BFA6B681B78022BDFB21CD1A4
:1010600000F004FE336838461A7902A98DF808208A
:10107000DA788DF809208DF80A201B788DF80B306E
:10108000304B1B68DB688DF80D708DF80C302F4BE2
:10109000009300231A4606F069FA6B681B78042B4C
:1010A000DFB21FD100F01EFE3268384613798DF88A
:1010B0000830D378991C8DF809308DF80A10127811
:1010C00002A98DF80B201F4A1268D2688DF80C20F7
:1010D00001228DF80D201E4A1344009300231A4666
:1010E00006F044FA6B681B78072BDFB21DD100F0C5
:1010F00019FE336838461A7902A98DF80820DA7883
:101100008DF809208DF80A201B788DF80B300D4BD7
:101110001B68DB688DF80C3082238DF80D300D4B89
:10112000009300231A4606F021FA00F0D6FC08E7E7
:101130000CF0FDFB03287FF4E3AE07E7140000206A
:101140001804002030080000604100207046002094
:101150007351002068540020704700000122014BA9
:101160001A547047EC0300200022014B1A547047B8
:10117000EC030020014B185C704700BFEC0300201B
:1011800008B50AF0CFF9003818BF012008BD0520C6
:101190000AF0D0B90AF0EEB9014B1860704700BFF1
:1011A00018040020014B1868704700BF1804002085
:1011B000014B5860704700BF18040020014B58686D
:1011C000704700BF18040020014B1868704700BF2B
:1011D000100000201220FFF7C1BFF8B508F006FE8E
:1011E000044608F0EFFD072828D108F0E5FD0128A6
:1011F000064623D1194A1A4B1A4F1B6812685D78AC
:101200003968927CB1F8D4306A4301339BB2B3FBA6
:10121000F2F541F2285002FB1535134BA1F8D450DA
:101220001B681B5853B9B1F8D03043B1022363F3A4
:101230000204204608F0E0FD0C4B1E70F8BD002DA6
:10124000FCD1032363F30204204608F0D5FD0222FB
:101250003968064BA1F8D6501A70EFE73405002024
:10126000380500201000002074000020A600002097
:101270007FB508F0A7FD07280BD108F09DFD0128D8
:1012800007D141F228531A4A1268D35843B30CF0DD
:1012900055FB184B5B681B78072BDDB21ED100F0A5
:1012A00041FD00238224144A28461268134D117907
:1012B0002D688DF80810D178114E8DF809108DF831
:1012C0000A101178ED688DF80B101A46009602A9E5
:1012D0008DF80C508DF80D4006F048F904B070BD43
:1012E000084B1C680CF02AFBA4F8D000D1E700BF23
:1012F00074000020140000201804002030080000B2
:1013000068540020100000202DE9F04108F06EFD27
:1013100000F00703022B044657D108F04DFD0328C7
:1013200039D141F228515A4F3B685A58002A32D1DC
:1013300003F5A752127822B141F290429A5C012A39
:1013400029D1544D2A6892F82820022A23D141F24B
:1013500090415A5C012A01BF002241F28C405A544C
:101360001A500CF0E4FA4C4B0646B0B9012767F36B
:10137000020420461F6008F03FFD484B48491B68A7
:101380002A680F7082F828605E7200222B6883F84A
:10139000D620A3F8D420BDE8F0814FF000083A68C9
:1013A000C3F800805379022BEFD1012666F30204C3
:1013B000204608F021FD394B39491B682A680E7018
:1013C00082F8288083F80980DFE7032BE3D108F057
:1013D000F3FC0428DFD141F290412D4F2D4D3B68A5
:1013E0005A5C012A01BF002241F28C405A541A5023
:1013F0002A6892F8D730FF2B1CBF013382F8D73010
:101400000CF095FA0646A8B9012767F302042046B6
:1014100008F0F2FC02204FF480321F491F4C0F608D
:101420002B6824681E4983F8286008706672C3F828
:10143000D420B0E72B6893F8D730012BABD93B68A9
:10144000174F03F5A7531E7896B9012363F30204DF
:10145000204608F0D1FC022110482B680068397042
:101460000D4983F828604FF4803246720E60DEE743
:10147000022363F30204204608F0BEFC002204218C
:101480002B683970A3F8D42083F8D72083E700BFF6
:101490007400002010000020A41D00207000002017
:1014A000A600002008B5064B1B685B7A2BB908F034
:1014B00089FCC31F5842584108BD0020FCE700BF0B
:1014C00010000020014B1B68D872704710000020EC
:1014D000014B1B68D87A704710000020014B1B6835
:1014E0009872704710000020014B1B68987A704773
:1014F00010000020014B1B68586970471000002045
:10150000014B1B68586B704710000020024B1B6892
:1015100083F82900704700BF10000020024B1B68B1
:1015200093F82900704700BF10000020024B1B6891
:1015300083F82A00704700BF10000020024B1B6890
:1015400093F82B00704700BF10000020024B1B686F
:1015500083F82B00704700BF10000020024B1B686F
:1015600093F82A00704700BF10000020024B1B6850
:1015700083F82C00704700BF10000020024B1B684E
:1015800093F82C00704700BF10000020024B1B682E
:1015900083F82D00704700BF10000020024B1B682D
:1015A00093F82D00704700BF10000020024B1B680D
:1015B00083F82E00704700BF10000020024B1B680C
:1015C00093F82E00704700BF10000020024B1B68EC
:1015D00083F82F00704700BF10000020024B1B68EB
:1015E00093F82F00704700BF10000020014B1B68CC
:1015F000D86970471000002041F22D53064A074970
:1016000012680968D05C91F82B1088421ABF01203B
:10161000D1540020704700BF74000020100000204B
:1016200041F22E53064A074912680968D05C91F8C6
:101630002A1088421ABF0120D1540020704700BFF1
:10164000740000201000002041F22F53064A074981
:1016500012680968D05C91F82C1088421ABF0120EA
:10166000D1540020704700BF7400002010000020FB
:1016700041F23053064A074912680968D05C91F874
:101680002D1088421ABF0120D1540020704700BF9E
:10169000740000201000002041F23153064A07492F
:1016A00012680968D05C91F82E1088421ABF012098
:1016B000D1540020704700BF7400002010000020AB
:1016C00041F23253064A074912680968D05C91F822
:1016D0002F1088421ABF0120D1540020704700BF4C
:1016E0007400002010000020064B074A1B68126897
:1016F00003F5A9531968526991421ABF01201A6073
:1017000000207047740000201000002041F2285390
:10171000054A064912680968D058496B88421ABFC1
:101720000120D150002070477400002010000020DC
:101730002DE9F84308F05AFB00F00703012B064699
:101740002AD108F039FB012826D1FFF7DFFF012855
:1017500041F22854DFF8D8803CD141F22459D8F81E
:10176000003053F809701D59C7B9ADB146F00800F3
:1017700008F042FB0320D8F8003026491A590D68BA
:1017800043F80920244A1F5112682449244B85F844
:101790002870087057721F60BDE8F883BDB965F303
:1017A000C306304608F028FB0322D8F80030194859
:1017B0001959006843F8091017491A510B68174C5A
:1017C000174980F8285022700D605D72E4E703220B
:1017D0001A51E1E7D8F800301B59002BDCD00D4C32
:1017E0002268B2F8D210B2F8D03099420BD00D4B2B
:1017F00000201B6898470C4B00201B6898470B4B38
:1018000000201B6898472368B3F8D020A3F8D220A3
:10181000C2E700BF1000002070000020A6000020DA
:10182000A41D002004050020100500201405002040
:10183000740000202DE9F84308F0D8FA00F00703FF
:10184000022B07462AD108F0B7FA0328044625D10F
:10185000FFF75CFF012821D141F22458DFF85490B2
:1018600041F22856D9F8003053F80850C5B99B59B1
:10187000A3B147F0080008F0BFFAD9F800300948D2
:101880009959094A43F8081000689D5112680749A0
:10189000074B80F828500C7055721D60BDE8F88326
:1018A0009C51FBE71000002070000020A6000020E3
:1018B000A41D00207400002041F22C53064A074961
:1018C00012680968D05C91F8291088421ABF01207B
:1018D000D1540020704700BF740000201000002089
:1018E000044B1B685A79997991421ABF01209A7169
:1018F000002070477400002070B508F063FA0428D7
:101900005DDD08F05FFA072859DC3B4CFFF7E8FF84
:1019100023683A4D9B794FF4A262012B38490CBFE2
:101920003848394806F0A6FD2E68FEF7F5FB86F824
:101930003A0000F085F80BF0FAFF2E4640BB08F0A5
:1019400041FA072851D108F037FA04284DD123680D
:1019500003F5A7521278002A38D041F21C5241F206
:101960001851985C5A5858BB0E2A29DC01325A503B
:10197000336893F83A2093F839309A4231D108F01D
:101980001BFA032827D10620BDE87040FFF7E6BB0D
:101990000BF0CDFF0228D2D00BF0C9FF03280ED1E7
:1019A00008F010FA0728EAD108F006FA0428E6D170
:1019B0002B6893F83A2093F839309A42DFD070BD03
:1019C0000F2A02BF41F21C520121995441F21852D0
:1019D00000219950CCE708F0EFF90428EFD1282036
:1019E000D2E7BDE87040FEF78BBC41F218530021EE
:1019F0002268D150C3E700BF74000020100000200F
:101A000000401020B86D002060410020024B1B6890
:101A100093F82800704700BF10000020064B1B6899
:101A20001B7A012B06D10022044B1B68C3F88C20C3
:101A3000A3F89020704700BF180400201000002079
:101A4000704700BF70B5FFF72DFD204D204C2B686F
:101A500026685860FFF74EFD06F5A95630602668E7
:101A6000FFF76CFD41F22D53F0542668FFF776FD29
:101A700041F22E53F0542668FFF780FD41F22F53B8
:101A8000F0542668FFF78AFD41F23053F05426687F
:101A9000FFF794FD41F23153F0542468FFF79EFDA7
:101AA00041F232530022E0542B6883F8282008F0DA
:101AB0004FF92B6883F83A0008F04AF92B6883F84D
:101AC0003B00BDE87040FFF7A9BF00BF1000002039
:101AD0007400002008F054B97047704708B5FFF74C
:101AE000E1FC30B172B60620FFF744FB48B3FEF7C5
:101AF00007FC0620FFF73EFB38B10620FFF734FB5A
:101B00000022174B1B6883F83C202820FFF732FB8C
:101B100038B12820FFF728FB0122114B1B6883F8FE
:101B20003C2062B6FEF7ECFBFFF7BCFC40B10C4B6F
:101B30001A68D2F8BC30022B9CBF0133C2F8BC300B
:101B400008BD2820FFF716FB0028D0D100BF62B6E1
:101B5000BFF36F8FBFF34F8FBFF35F8F30BFBEE711
:101B60001000002038B50024044D2B681B79A342D7
:101B700000DC38BDFFF7B2FF0134F6E7880500202E
:101B8000024B1B6883F82800704700BF100000203C
:101B9000F0B5204A204B12681B689279012A12D0B6
:101BA00000201E4A1E4E02F5A2641979814212D904
:101BB00025460021013002F64A2CDF782C468F4260
:101BC0001ED82832F1E700211648144C00F5A26611
:101BD0001A798A4200D8F0BD05460022013104F688
:101BE0004A2CDF782846974201D82834F0E73CF8A1
:101BF000127000880235384426F8020B0132F0E7F3
:101C00003CF81170248802353C4426F8024B01311F
:101C1000D3E700BF740000201804002060410020BA
:101C200008870020F88100207047704700220C4B85
:101C300070B518680B490C4C0379934200DC70BDF9
:101C40000023013201F64A26C5789D4201DC283185
:101C5000F2E736F91350013324F8025BF4E700BFD2
:101C600018040020604100200887002070B5184A41
:101C7000184B12681B689279012A18D00020164C64
:101C8000164D1A79824222D92146002219E031F8F4
:101C9000020B013225F8020BDE7808469642F6D890
:101CA00001341A79A24212D901460022F4E70C4805
:101CB000002400F5A265F4E731F8024B013225F863
:101CC000024BDE780C469642F6D80130D9E770BD5B
:101CD00074000020180400207046002008870020AF
:101CE000F8810020F0B5002241F225050A4B0B498E
:101CF00018680B4C0379934200DCF0BD00230132DD
:101D00004F19C6789E4201DC1431F3E7FE5C0133C3
:101D100024F8026BF5E700BF1804002060410020A2
:101D2000088700204FF4A2620149024806F0A2BBD6
:101D30006854002008870020704700BF38B5224B48
:101D4000224D1A680024137820460A2B28BF0A2344
:101D500013701F4B1A682B681179997012781970DB
:101D600041F2E241DA705A705A185C5054601481A2
:101D700041F2C44299189C50164B4C601B6898471E
:101D800041F214522B68144999505C719C7101F016
:101D900049F901F00FFC01F077FD02F077F903F04B
:101DA0002BFC05F00BF904F093FA0C4B1B685B6DF0
:101DB00013B1214620469847BDE838404FF4A2624F
:101DC0000021074805F018BF880500207400002096
:101DD0003008000004050020646464000C0000204A
:101DE0006854002070472DE9F3410646684680E8B4
:101DF0000C002A4B2A4C1A682A4B27681B68A046FD
:101E00003F2994BF5B183F3393F88852B2F874307F
:101E10004FEA460C194441F2F03329448DB207EBE6
:101E2000460131F803E0BEF1000F00D1CD52CC5A8B
:101E3000D7F8503E41F24837C95B6344B3F8583095
:101E400041BB002B18BF2C46631B002BB2F86E1051
:101E5000B8BF5B428B42CCBFB2F87070B2F8727000
:101E600003F018FD48B97D43C7F1640004FB00543A
:101E70006420323494FBF0F4A4B2FE2C28BFFE247C
:101E8000D8F80030A0B206F6F81623F8160002B013
:101E9000BDE8F081002B08BF2C46D5E7880500205F
:101EA00074000020800500202DE9F04F0126002459
:101EB000C44A91B01568C44B0DF11C0C84351F68E1
:101EC00098460FCDACE80F000FCDACE80F002A68A4
:101ED000BE4BACF800207A6C1B680392FA6CBC4DC8
:101EE00004927A6ED7F854A0059297F8682083F888
:101EF000B360019283F8B440D8F800301B78A34255
:101F000015DC0BF014FD78B941F2BE44B04B1968F2
:101F10000B5D01F5A652012B40F06E8213683B2B3E
:101F20009ABF01331360085511B0BDE8F08F2B68DC
:101F30004FEA440BD3F8506E06EB440EBEF858C07F
:101F4000BCF1000F00F0E8810CF0E0F941F215530C
:101F500000284CD12A68D65C41F2E24C64279A4BA7
:101F6000286819680319CA6D13F80CE07243BEF1B2
:101F70000C0F02F13202B2FBF7F200F05181BEF118
:101F80000D0F00F09C81BEF1000F40F09980D0F859
:101F9000500E039F5844B0F85860BE4240F3D380BF
:101FA000B0F9D070974240F3CE8041F27E3203F810
:101FB00002E091F84820002A7FD10BF0B8FC30B93C
:101FC00041F2BE432A68D15C09B90121D15441F2E2
:101FD000E2420D212B6820462344995404F0D6F8A0
:101FE00041F27E3200212B682344995468E029682D
:101FF000A700D1F8502ECE5C02EB840191F9AB30F2
:1020000091F9AA1004F101095B1A022B20DC52F8A5
:1020100039309DF81C1003F500735A42C2F30802D0
:10202000C3F3080358BF534298B2B3F5807FD4BFBF
:10203000C0F58070A0F580700AAB80B20DF11E0271
:1020400000F02AFF6423181A4643323696FBF3F653
:102050002B68D3F8503E1F4497F9A92097F9A81090
:10206000521A022A23DC03EBC909D9F804309DF87F
:102070001C1003F500735A42C2F30802C3F30803AD
:1020800058BF534298B2B3F5807FD4BFC0F580707B
:10209000A0F580700DF1320380B20DF11E0200F048
:1020A000FBFE6423181A4643323696FBF3F69DF87E
:1020B0003C008642B8BF06464EE70C2203F80C20CF
:1020C0000CF024F9032803D05146204603F008FC05
:1020D0000CF01CF9A8BB2968D1F8503E1B78012BE5
:1020E0002FD141F2E2430A19D35C0D2B29D1394B90
:1020F0001B68D3F8502E02EB840393F9AA0050B169
:1021000093F9AB00112806D093F9A80018B193F900
:10211000A930232B04D101202C4B1B6883F8B40079
:10212000601C01EBC00101F58751043102EBC000D6
:1021300000F0BEFA3B2804D80022244B1B6883F829
:10214000B3200134D8E604998E4245DDB0F9D010B1
:102150009142B5DD41F27E3600229A550BF0E7FB45
:10216000B0B941F2BE472B6813F80790B9F1000FE0
:102170000ED141F2E2420D2123449954204604F04D
:1021800005F801222B68191901F80690DA5597E72E
:1021900041F27E362B68D8F800202344995D92F8EE
:1021A000502003F5A753914203F1020335D30D22CA
:1021B00020461A7003F0EAFF00222B6823449A5548
:1021C0007EE700BF84050020880500201000002065
:1021D00074000020E81D002056457FF771AFB0F96C
:1021E000D01091427FF76CAF41F27E3600229A55B3
:1021F0000BF09DFB38B941F2BE472B6813F80790EE
:10220000B9F1000FB5D041F27E362B68D8F8002026
:102210002344995D92F85820C3E70C221A704FE7C7
:1022200041F27E37DE5D632E9CBF0136DE55D0F86D
:10223000500E039F5844B0F85860BE421ADDB0F902
:10224000D070974216DD41F27E3691F84820995DB4
:102250009142FFF435AF41F2E2420D2120469954FC
:1022600003F094FF002241F288312B6823449A55F1
:102270005A5425E7049FBE4208DDB0F9D0009042D1
:102280000FDD41F27E3691F85020E0E7564508DD3B
:10229000B0F9D000904204DD41F27E3691F858202A
:1022A000D5E70BF044FB41F2E24218B92B68234416
:1022B000985495E600212B682344995490E6D0F871
:1022C000502E05985A44B2F858C0844508DB096E70
:1022D000B2F9D0204E433236B6FBF7F7BA4218DADD
:1022E0000BF025FB28B941F2E2422B6823449854B5
:1022F000E6E641F288312A682244535C0133DBB2BE
:10230000535401999942BFF4DBAE41F2E2430021FC
:102310006BE641F28832FAE741F2E2401A19115CA9
:10232000A1F10C07012F07D9022916D1002141F292
:1023300088361154915510E00D29F7D141F28837B4
:10234000D15D01315FFA81F9019902F807904945A1
:102350001BD802F800C002F807C0002241F29237F1
:1023600041F29C3641F27E30191903EB0B0C03EB62
:10237000C403CA558A55C3F86825C3F86C25ACF860
:10238000CC25ACF8B8250A54DBE641F2501703EB34
:10239000C40202F5875203EBC4090C3209F21C692E
:1023A00092E8030089E8030003EB0B0939F80710F2
:1023B0004FF0060CA9F880160291671C92E8030002
:1023C000029A06EBC70787E80300AEF86C2041F2DB
:1023D0003C120CFB04FC39F8021003EB0C02AEF8C3
:1023E000581002F58B5252F8041FB4449288CCF86E
:1023F0000C11ACF81021B0E7106095E570B50BF04A
:1024000085FF03288B4C0FD023689B6D002B00F0B9
:10241000E2800021084698472368DB6D002B00F01E
:10242000DD80002108469847834D4FF49E7228684E
:102430000021503005F0E0FB2368D3F88830002BF2
:1024400000F0D2800021084698472368D3F88C30EA
:10245000002B00F0CC800021084698472368D3F871
:102460009030002B00F0C680002108469847236872
:10247000DB6F002B00F0C180704A29681068984714
:102480002368D3F88030002B00F0BA806B4A2968AB
:10249000106898472368D3F88430002B00F0B3808D
:1024A000664A29681068984703F020F90BF02EFF60
:1024B000032801D000F094FE01F0D0F930B903F008
:1024C0008BF80BF023FF08B903F086F803F0ABFD9F
:1024D00003F0D8FC2368D3F8C83013B100210846B4
:1024E00098472368D3F8D43013B1002108469847A1
:1024F000FFF7DAFC2368D3F8D83013B1002108467F
:10250000984703F0C9FE0BF001FF032803D104F044
:1025100050FC03F005FF2368D3F8CC3013B1002141
:10252000084698472368D3F8D03013B100210846F5
:1025300098472368D3F8EC3013B100210846984738
:102540002368D3F8F43013B10021084698470BF004
:10255000DDFE03285AD104F051FC04F0FCFE03F028
:1025600088FD23681B6F002B5AD00021084698472E
:1025700023685B6F002B56D00021084698472368DC
:102580009B6F002B52D00021084698470BF0BEFEEF
:10259000032818D12B685A7E5AB993F8202042B9E3
:1025A00093F834202AB993F8212012B993F83530E2
:1025B0004BB107F007FC072805D107F0FDFB032806
:1025C00001D103F085FE0BF0A1FE2B68587EB0FA16
:1025D00080F0400907E000F02DFD1DE700F07CFDD4
:1025E00001287FF421AF70BD01F062F92DE701F001
:1025F00061F933E701F048FD39E701F08CF83FE776
:1026000001F0B6F846E701F0B4F84DE70C4E336838
:10261000987804F0ECFC3368987804F04BFF9EE760
:1026200001F076F8A4E701F074F8A8E701F072F879
:10263000ACE700BF0C0000207400002088050020DB
:1026400038050020012831D9421C5308B0FBF3F2B1
:102650001A445208B0FBF2F313445A08B0FBF2F3E9
:1026600013445B08B0FBF3F21A445308B0FBF3F2D7
:102670001A445208B0FBF2F313445A08B0FBF2F3C9
:1026800013445B08B0FBF3F21A445308B0FBF3F2B7
:102690001A445208B0FBF2F313445A08B0FBF2F3A9
:1026A00013445B08B0FBF3F018444008704700BFC8
:1026B00010B443684C680268181B00FB00F00B68FC
:1026C00010BCD31A03FB0300FFF7BCBF70B40E6845
:1026D00004684D68331B4168002BA5EB01001EDD2B
:1026E00000280ADD834231DDC00190FBF3F0574B37
:1026F000185C02B15A3870BC704732D0491B9942FD
:102700005CDAC90191FBF3F07F2871DD002A40F00B
:1027100085804E4B93F88000C0F5B470EBE70DD088
:10272000002823DDA41B84423BDAE40194FBF0F48F
:10273000464B185D002ADED15A30DCE7002826DD42
:1027400070BC002A14BF18465A20704723DADB01F8
:1027500093FBF0F3002A3CD13C4AD05CC0F15A0014
:10276000C9E7002A18BF5A2070BC704754D0834272
:1027700043DB66DDA41BE401491B94FBF1F1334B01
:102780007F29D4BF585C93F88000B430B3E7B2D04F
:102790004FF48770AFE7002A0CBF2D206FF02C009C
:1027A000A9E720DDC00190FBF4F07F283ADC274B3D
:1027B000185C002AD2D1C0F1B4009CE70DDDD8012D
:1027C00090FBF1F37F2B33DC002A3CD01F4AD05C16
:1027D00091E71E4AD05C40428DE7002A40F23B1050
:1027E00018BF2D2087E7002A14BF2D20872082E7FD
:1027F000164B185C002A8FD0B0E74B1BDB01A41BE3
:1028000093FBF4F37F2BD5BF104A104BD05C93F8A9
:102810008000C0F587706EE7B4206CE70B4B93F82F
:1028200080009BE7002AF9D1084B93F88000C2E7AB
:10283000064B93F88000002A7FF45DAF00F58770A7
:1028400059E7E12057E7014AD05CF7E73408000078
:1028500070B556684C68126834445E680968344440
:1028600003261B680A4413440134013394FBF6F435
:1028700093FBF6F3C0E9003470BD2DE9F0418AB056
:102880001E466C4617460546DDF8408004A8FFF753
:10289000DFFF434632463946204606AFFFF7D8FFF2
:1028A00094E80300424687E80300119B3146204626
:1028B000FFF7CEFF94E8030008AB83E80300049A17
:1028C00006992846C2EB410202920799059AC2EB8B
:1028D00041020392394602AAFFF7BAFF0AB0BDE8E7
:1028E000F08100BFF0B5D2E9006706C91D465B68FC
:1028F0002D68DDF814C0A5EB060E711ABA1ADF1B9D
:1029000002EB4702DCE90067A7EB030C751B01EB48
:102910004E0306990CEB4C0C05EB450562442B4429
:1029200022C9EF1B8E1B02EB870203EB8603094EC5
:102930000532053386FB02C786FB03C6D217DB17B9
:10294000C2EBA702C3EBA6032A440B44C0E9003242
:10295000F0BD00BF676666662DE9FF419046DDE980
:102960000A651F460446CDE9006502A8FFF7BAFFD5
:1029700005227B68D8F80410386819447368194434
:102980006B681944039B1944D8F8003002310344A2
:10299000306891FBF2F10344286803440298034431
:1029A000023393FBF2F32046C4E9003104B0BDE8E2
:1029B000F08100BF2DE9F04FD3E900C315460F6841
:1029C000804610688FB04C6838445768DDF860B0B6
:1029D0003C44604404EB030CDBF80030199E1844BF
:1029E000DBF80430544C9C4433688A4618447368BE
:1029F00002309C440CF1020C84FB007384FB0C79C4
:102A00004FEAE07E02AF4FEAEC7CCEEB630ECDE9FD
:102A100000B6CCEB690C384608ABCDF820E0CDF819
:102A200024C0FFF75FFF97E803002A68089B0DF1B9
:102A3000100902EB030C6B68099A89E80300DBE9D3
:102A4000000113440B447168326884440B440499B8
:102A500062440A44059902320B44023384FB02109B
:102A600084FB031CD2170DF1280BC2EB6000DB17AF
:102A7000C3EB6C0C29465B46CDE9006908AA0A90B5
:102A800006A8CDF82CC0FFF72DFFDDE90932D6E905
:102A9000001608980DF1300E024402EB010C0B9861
:102AA000049A03449444059A33441344079E069AB7
:102AB0001E4494440CF1020C023684FB0C3084FB5F
:102AC00006324FEAEC7CF617CCEB600C51463846E8
:102AD00008ABC6EB6206CDF800B02A46CDF804E09C
:102AE000CDE90CC6FFF7FEFE97E80300DDE90A26F4
:102AF00089E803002F686B68DDE908502F44034420
:102B00000C9D0D9804993A443344059E03442A448D
:102B10000A4433440232023384FB020184FB03047F
:102B20004046D217DB17C2EB6102C3EB6403C8E96E
:102B300000230FB0BDE8F08F676666662DE9F04FA1
:102B4000D3E900E6144691B0DDF868A00B6815687B
:102B50004F681D44DAF80030DDF86CB00393536819
:102B600081461F44DAF80400039B37447544074448
:102B7000DBF800002B440344DBF80400434D07441A
:102B80000237023385FB030685FB07C0DB174FEADC
:102B9000E77C04AFCCEB600CCDE900AB3846C3EB6F
:102BA00066060AAB88460A96CDF82CC0FFF79AFE57
:102BB00097E8030022680A9B06AE02EB030C6368E9
:102BC0000B9A86E80300DAE9000113440B44DBF8B2
:102BD0000410DBF8002084440B44069962440A4444
:102BE000079902320B44023385FB021085FB031C5C
:102BF000D2170DF1300AC2EB6000DB17C3EB6C0C8F
:102C0000214653460AAA0C90CDE900B608A8CDF893
:102C100034C0FFF767FEDBE900010C9A0A9BCDF890
:102C200000A002EB030C0B9A0D9B844413440B444D
:102C30000799069A0B44089962440A44099902329A
:102C40000B44023385FB021085FB031CD2170EAD2B
:102C5000DB17C2EB600EC3EB6C0C414622463846D4
:102C60000AAB0195CDE90EECFFF73CFE97E80300B7
:102C70005346CDE900560AAA86E803004846214695
:102C8000FFF7FBFD484611B0BDE8F08F676666664A
:102C90002DE9F047D3E900C30C6815688646254442
:102CA000486854688EB020440446DDF85890AC441F
:102CB000D9F80000179F8444D9F804001C44044448
:102CC0007B683868234484443C4C0CF1020C02338A
:102CD000164684FB0305F24684FB0C0EDB174FEA15
:102CE000EC7CCCEB6E0CCDE9009702A8C3EB65053C
:102CF00008AB8846CDF820C00995FFF7F3FD33688F
:102D0000089A04AD02EB030C7368099A03C81344D4
:102D10003A6885E80300D9E90001844494447A685C
:102D20000B441344049A0DF128099444059A0CF1BC
:102D3000020C1344023384FB0C2184FB03024FEA90
:102D4000EC7CDB17CDE90075CCEB610CC3EB6205C5
:102D500031464B4608AA06A8CDE90AC5FFF7C2FDD1
:102D6000D7E900370B9808A926C9294401EB030CC1
:102D70000244059B049D3A441A44079F069B654400
:102D80001D4417440235023784FB053E84FB07309F
:102D9000ED170CACFF17C5EB6E05C7EB60073246AD
:102DA00050464146CDF8009008AB0194CDE90C5750
:102DB000FFF798FD0EB0BDE8F08700BF6766666656
:102DC0002DE9F04717469846064686B002ADDDE984
:102DD0000E9A04AC2846CDE9009AFFF783FD95E8EA
:102DE00003004246CDF800A04B4684E80300394674
:102DF00028460194FFF7B0FD95E8030084E803003E
:102E000086E80300304606B0BDE8F0872DE9F047BC
:102E10000E4603C815468AB09A46E8460DF12009C9
:102E200006AF89E803004846129C03F0F1F996E8E2
:102E3000030004AE87E80300384603F0E9F995E89B
:102E4000030002AD86E80300304603F0E1F99AE89A
:102E5000030085E80300284603F0DAF994E803004C
:102E600088E80300404603F0D3F949463846FFF7A7
:102E70001FFC394604463046FFF71AFC314604442D
:102E80002846FFF715FC294604444046FFF710FC8E
:102E900020440AB0BDE8F08770B501240139A14291
:102EA00032F914504FEA44060FDC04F10044013CAF
:102EB000995F33F91430401BCB1A434332F91400A5
:102EC0002D1A93FBF5F0084470BDA842EDDB0134E8
:102ED000E5E72DE9F0478AB0CDE903211422064643
:102EE0001298DDF84C80CDE9010300210DEB0200C2
:102EF000CDF8008004F080FE0021EE460B468A46A5
:102F00000D4605AA5EF804CB00294BD0BCF9009011
:102F10005EF8080C4C46B0F900004443A0EB0907EA
:102F200026D452F8040CC71B3B441760BCF80200BF
:102F300001310544BCF804000529824402F1040271
:102F4000E0D19A1C13F5E47F92FBF1F12EDAB43153
:102F500005230AF102040235B5FBF3F5B4FBF3F4E3
:102F6000304609B231807580B4800AB0BDE8F08780
:102F700087EAE7790028A9EBE77904DAB9F1590F74
:102F8000C8BFB437CDE7B9F1590F05DDA7F1B400DB
:102F900052F8047C3F1AC7E752F8040CC01B0344E4
:102FA0001060C3E7B8F900300593BFE7B3F5E27FDF
:102FB000C8BFB439CCE700BF014B1860704700BFF1
:102FC00080050020014B1868704700BF8005002075
:102FD000014B5860704700BF80050020014B5868C6
:102FE000704700BF80050020014B9860704700BF0C
:102FF00080050020014B9868704700BF80050020C5
:10300000014B1868704700BF74000020014BD86066
:10301000704700BF80050020014BD868704700BF93
:10302000800500200022024B1B68C3E90222704782
:1030300074000020264B1B681B7A012B47D1F0B58A
:103040000C25244B196891F84030C3F38103CC1848
:1030500094F88C2005FB0315022A94F88F009CBF7E
:10306000013284F88C2003EB4302B5F8725002441D
:1030700001EB4202A2F8925006225F0002FB03130A
:103080000022164694F88C509233B5421ADC322650
:1030900002EB5502B2FBF5F23944B1F8A4307343A8
:1030A000334406FB02326423B2FBF3F2A1F8A420FE
:1030B0000322431CB3FBF2F202EB42029B1A84F898
:1030C0008F30F0BD33F802CB01366244DDE7704744
:1030D000180400201000002070B53E4C23681B7AB5
:1030E00013B90024204670BD0BF010F9012840D11F
:1030F0000C22394B21681B6893F83A0002FB00321E
:10310000B2F87240CA899442344C0ED900200BF0B8
:1031100059F941F2E4032268D35C0BB9FEF70EFEC5
:10312000002223689A600124DCE703EB4003B3F834
:10313000A4008B892268984218D99368B3F5806FF0
:103140003CBF0133936092684B899A42C9D30020F7
:103150000BF038F941F2E4032268D35C0BB9FEF7B7
:10316000EDFD002223689A609A82DCE700249460D7
:10317000B8E70BF0CBF80028B3D125680C24164B28
:10318000164A1E68136896F83A1004FB0161B1F8FC
:103190007240698A8C4214460CD29A68B2F5806FEC
:1031A00001D201329A6099682A8A914204D100249E
:1031B0001C6197E79860F6E793D901200BF002F9BC
:1031C00041F2E4032268D45C002C8AD1FEF7B6FDFC
:1031D00088E700BF180400201000002074000020C1
:1031E0002DE9F04F0024ABB04822002106A804F0DE
:1031F00003FD4822002118A804F0FEFC0E222146FF
:1032000002A8019404F0F8FC0BF080F8B14B002800
:1032100040F0838024221868AF4BB04C1F6804F63E
:103220006C2100F5A750A1F1240535F9023F002BD0
:10323000BCBF5E422E80002BB8BF5B42B7F916C000
:1032400006789BB26345D4BF334646F00103A942DA
:103250000370EAD1013A01F12801E4D10DF1180817
:1032600018AB994640469646DFF870C20021664684
:103270000D46B6F94A7A0131142FC4BFED1907681B
:1032800006F12806C4BF013707602429F1D150F8A0
:10329000041B0EF1010E95FBF1F5BEF1120F49F87A
:1032A000045B0CF1020CE1D100214FF0010C084647
:1032B00006AD01AF58F8046B1C2E03DD012001F8A8
:1032C00007C002E06E6C1C2EF8DC01311229A5F15A
:1032D0000405EFD1F0B101AE2046242516F801CB4C
:1032E000BCF1010F0BD1B0F94A7A1968002FA7EB96
:1032F000010109B2C8BF21EAE171A0F84A1A013DF3
:1033000000F12800ECD10132122A04F1020403F189
:103310000403E1D12BB0BDE8F08F214620461B68A5
:1033200003F5987203F5AA7332F8024B1D2C548CE6
:1033300028BF01201D2C28BF01219A42F4D1012869
:1033400079D1664C0DF1180818AEA446B146424634
:103350004FF0000E002365461846B5F94A7A013051
:10336000142FC4BFDB19176805F12805C4BF013746
:1033700017602428F1D152F8040B0EF1010E93FBD3
:10338000F0F3BEF1120F49F8043B0CF1020CE1D14D
:103390000023012706AA01A858F8045B1C2D01DDB3
:1033A0001F5402E0556C1C2DFADC0133122BA2F1E4
:1033B0000402F1D1002501AF2246242017F801EBC9
:1033C000BEF1010F0CD1B2F94ACA3368BCF1000F4B
:1033D000ACEB03031BB2C8BF23EAE373A2F84A3A7B
:1033E000013802F12802EBD10135122D04F102045B
:1033F00006F10406E0D14FF014084FF00E0A384BE6
:10340000384D93F80090A5F6482EAC4600240026CF
:103410003CF9022F324F520012B2B14541D892FB13
:10342000FAF20134122CACF80020F0D1013024283B
:1034300005F12805E9D101297FF46CAF27480DF18A
:10344000180818AA0746914641464FF0000E8446D8
:1034500000233D461C46B5F94A6A013416F1140FA3
:10346000BCBF9B190E6805F12805BCBF01360E6074
:10347000242CF0D151F8044B0EF1010E93FBF4F320
:10348000BEF1120F49F8043B07F10207E0D1002119
:10349000012606AB01AC58F8045B1C2D24DD0E554B
:1034A00025E0BB7897F801B003445BB2A3444FFA20
:1034B0008BFB013308FB03B303F211533EF81330C7
:1034C00016F0010F0CBF02EB4302D21812B2013604
:1034D0000237A2E774000020880500206041002028
:1034E000F4080000A84B00205D6C1C2DD7DC0131D6
:1034F0001229A3F10403CED1002501AE04462421F4
:1035000016F801EBBEF1010F0BD1B4F94A7A13683A
:10351000002FA7EB03031BB2B8BF03EAE373A4F8C1
:103520004A3A013904F12804ECD10135122D00F199
:10353000020002F10402E1D14FF0140E4FF00E0927
:103540001A4B1B4F93F800803E460020002436F9AA
:10355000022F164D520012B2A0450BD892FBF9F281
:10356000013012283280F1D10131242907F12807D6
:10357000EAD1CFE6AB7814F0010F0B444FFA83FA8F
:103580006B7804F1010403444FFA83FB0AF1010351
:103590000EFB03B303F211533CF8133005F102059F
:1035A0000CBF02EB4302D21812B2D5E7F4080000B8
:1035B000A84B00200022034B1B689A76DA61A3F81F
:1035C0004A207047740000204FF4A26200212DE9C8
:1035D000F0413E4804F010FBFDF7F0FD4378012B6D
:1035E00005D14FF4A2620021394804F005FB002404
:1035F00025462646374FDFF8E0803B685B79B342CB
:103600002CDC9DB10022344B304E18686F08C37813
:1036100081785943013946D2304B1B689B6803EBD4
:10362000D37102EB6102B2FBF3F28285A4B10022F6
:10363000294B274D18686608C378817859430139AA
:103640003AD2264B1B689B6803EBD37102EB6102F5
:10365000B2FBF3F2A0F84020BDE8F081FEF73EFA9D
:10366000D8F80000837990F803C08278012B02FB20
:103670000CF209BF164B154B0134A3F5A2511BBF29
:103680000135A3F5A261E4B2EDB201EB4202914231
:1036900001D10136B1E733F8020B31F802CB6044B7
:1036A00023F8020CF3E733883B44B3FBF5F326F829
:1036B000023B9BB21A44ADE72B883344B3FBF4F3CF
:1036C00025F8023B9BB21A44B9E700BF70460020C0
:1036D000F8810020880500207400002030080000D8
:1036E000084B1B689B79012B15BF4FF4A26206495A
:1036F00006494FF4A2620CBF01F5A250881804F0ED
:10370000B9BE00BF74000020B86D002060410020E9
:10371000704770477047144B30B51A680023134840
:103720009579006813849386012DD2F87811046A84
:103730000CD18C4207DBD2F87C311944436A9942A0
:10374000ACBF0023012382F8343030BD8C4207DB4C
:10375000D2F87C311944436A9942ACBF002301235B
:1037600082F82030F1E700BF7400002088050020B7
:1037700070470022364B37491B6809685A7691F822
:103780002C0008B9497D09B11A849A8699790129D2
:1037900037D193F834203AB12F489A6B006890F8EB
:1037A0002800824202DC01329A6302E0002259764C
:1037B0009A6393F835203AB12749DA6B096891F892
:1037C00028108A4218DC0132DA639A7E002A39D046
:1037D00000229A76DA6903F5A7510132DA61097895
:1037E00089B31D49096891F828108A422BDA012211
:1037F0005A7601229A7629E00022DA6301225A766B
:10380000E3E793F820203AB113495A6A096891F81E
:1038100028108A4202DC01325A6203E000225A6216
:1038200001225A7693F821203AB10B499A6A096825
:1038300091F828108A4202DC01329A62C5E7002220
:103840009A62DBE7DA615A7E012AD2D0704700BF64
:10385000740000207000002088050020094B1B68C0
:103860009A79012A04D1988E003818BF0120704738
:103870005A7E2AB9188C003818BF0120C0B2704790
:103880000120FBE77400002008B5084B4FF4BE622E
:103890000021184604F0B0F9BDE808404FF4A262D8
:1038A000002100F6F85004F0A7B900BF804B0020BB
:1038B000704700BF2DE9F04F944B9DB01B68242248
:1038C000B3F91250B3F914600495B3F91E500021F6
:1038D0000AA8B3F91A40B3F916A0B3F918900695DF
:1038E0000896B3F91C5004F087F92422002113A88C
:1038F00004F082F90AF00AFD002840F0C0818346F6
:10390000834BDFF81C821B6801909C46079303F1F0
:103910002402A8F65A23099308F5347302930798F2
:10392000A8F1120613E0019F0B1B1F440197B0F989
:103930005830BCF9A0E0CB1A0029A3EB0E030FDD31
:1039400023EAE37304301BB2824233800FD036F98E
:10395000021F8C42E7DB8D42C4BF4B1B9B44E6E752
:10396000002B24DD0023043082423380EFD1464611
:10397000079813E0019F0B1B1F440197B0F97C309F
:10398000BCF9A2E0CB1A0029A3EB0E0312DD23EA57
:10399000E37304301BB28242338012D036F9021F27
:1039A0008C42E7DB8D42C4BF4B1B9B44E6E70029FA
:1039B000C8D1C5E7002B33DD0023043082423380B9
:1039C000ECD1029B08F1280843450CF1040CA6D168
:1039D000079BDFF850819C4603F14801029107984C
:1039E000A8F1120613E0019F0B1B1F440197B0F9C9
:1039F0005A30BCF9E8E0CB1A0029A3EB0E0312DD24
:103A000023EAE37304301BB28242338012D036F9CA
:103A1000021F8C42E7DB8D42C4BF4B1B9B44E6E791
:103A20000029B6D1B3E7002B24DD00230430824205
:103A30003380ECD14646079813E0019F0B1B1F44CF
:103A40000197B0F97E30BCF9EAE0CB1A0029A3EB6C
:103A50000E0312DD23EAE37304301BB2824233808B
:103A600013D036F9021F8C42E7DB8D42C4BF4B1BDB
:103A70009B44E6E70029C5D1C2E7002B40F3D9807B
:103A80000023043082423380EBD1029B0CF1040C02
:103A9000634508F12808A2D147F6FF71099B1D4C28
:103AA00003F580551C480E35A4F1240333F9022B8D
:103AB0009042B8BF10469142A8BF1146A342F5D12B
:103AC00003F12804A542EFD140F2DC53984240F3C1
:103AD000B4800122114B07998A751A68D2F8BC305C
:103AE000012B14BF1E236423002426460999CDE927
:103AF000024401F58050084D059482F8AB300C303B
:103B000001F66C21A1F1240229E000BF8805002004
:103B100074000020CE4B00200080FFFF100000202A
:103B2000BA4B00208A4E0020049F9F4212DA9A4529
:103B3000A3EB0A040BDA029F2744069C02979C42DF
:103B4000BFBF059C04F1010E1FFA8EF405940124F9
:103B50002644B6B29D42B8BF1D46914210D032F9FC
:103B6000023F002BE0DC9945F7DD089F9F42C8BF6C
:103B70000124039FA3EB09031F4491420397EED155
:103B800028318842BED115F5004F08BF0025079B9C
:103B90000299019AC3F8781103990DF14C0C1A653A
:103BA000C3F854B0C3F87C1103F5AA790DF16C0881
:103BB00067460FCF4745C9F80000C9F80410C9F897
:103BC0000820C9F80C300CF1100C09F11009EFD1E4
:103BD000079BDCF800000AAFC9F8000003F59878ED
:103BE0000DF14809BC46BCE80F00CC45C8F8000000
:103BF000C8F80410C8F80820C8F80C3007F11007FE
:103C000008F11008EED13868321E079918BF01225A
:103C1000C8F800002046A1F88051059D01F5A75382
:103C20000C76A1F88451A1F882611A701DB0BDE82C
:103C3000F08F00297FF410AF0CE7A3F6B833994258
:103C4000FFF647AF0023B34C079922688B75D2F873
:103C5000BC30012B00F0E58192F83A3003EB4303CE
:103C600002EB8303B3F87230B3F57A7F05D841F2E3
:103C7000E403CB5C012B40F2D6811E2334E7A64B34
:103C80001B689B7C002B00F059814FF0000BA34B6D
:103C9000DFF8A0821B68CDF804B09C46079303F1BF
:103CA000240208F5347302930798A8F1120613E072
:103CB000019F0B1B1F440197B0F95830BCF9A0E0DD
:103CC000CB1A0029A3EB0E030FDD23EAE3730430C4
:103CD0001BB2824233800FD036F9021F8C42E7DBE1
:103CE0008D42C4BF4B1B9B44E6E7002B24DD002321
:103CF000043082423380EFD14646079813E0019F9B
:103D00000B1B1F440197B0F97C30BCF9A2E0CB1A21
:103D10000029A3EB0E0312DD23EAE37304301BB288
:103D20008242338012D036F9021F8C42E7DB8D428B
:103D3000C4BF4B1B9B44E6E70029C8D1C5E7002B55
:103D400033DD0023043082423380ECD1029B08F142
:103D5000280843450CF1040CA6D1079BDFF8D88155
:103D60009C4603F1480102910798A8F1120613E05E
:103D7000019F0B1B1F440197B0F95A30BCF9E8E0D2
:103D8000CB1A0029A3EB0E0312DD23EAE373043000
:103D90001BB28242338012D036F9021F8C42E7DB1D
:103DA0008D42C4BF4B1B9B44E6E70029B6D1B3E765
:103DB000002B24DD0023043082423380ECD14646C0
:103DC000079813E0019F0B1B1F440197B0F97E3049
:103DD000BCF9EAE0CB1A0029A3EB0E0312DD23EABB
:103DE000E37304301BB28242338013D036F9021FD2
:103DF0008C42E7DB8D42C4BF4B1B9B44E6E70029A6
:103E0000C5D1C2E7002B40F38180002304308242F9
:103E10003380EBD1029B0CF1040C634508F12808B8
:103E2000A2D1002647F6FF7E3D4A3E4B09923E4A0C
:103E3000CDE90266D2F800801C683C4D0596099BCE
:103E40000022981E26E0A3F1150CBCF1620F9FBF63
:103E50000AAF37F812C00CF1010C27F812C0534515
:103E600010DD029FA3EB0A0C67440297069F013600
:103E7000BB42C8BF059FB6B2C2BF07F1010C1FFA13
:103E80008CF705979D4202F10102B8BF1D46122A28
:103E900001802BD030F9021F98F810C00B46BCF1FE
:103EA000000F06D014F8013B01FB03F1CB1141F3E5
:103EB000CF11002BC7DC03F1770CBCF1620F9CBF64
:103EC00013AF37F812C001809CBF0CF1010C27F82A
:103ED00012C04B45BFBF039FA3EB090C6744039778
:103EE00001329E45A8BF9E46122AD3D1099B104A93
:103EF00028339A420993A2D1089B9E45C0F28F8035
:103F0000049B9D42D4BF002401243CE600297FF499
:103F100068AF64E710000020A81D00207400002096
:103F2000AA4B002080050020880500200080FFFFAC
:103F30004A510020BA4B00208A4E00209B46019334
:103F40004C4BDFF83CC11B680CF53476079307989F
:103F5000ACF1240111E0019F131B1F44B0F958304C
:103F6000002A0197A2EB030315DD23EAE3731BB2DA
:103F700061450B8000F1040015D031F9022F944205
:103F8000E9DB9542C4BF531B9B44B0F95830002A6B
:103F9000A2EB0303E9DC002B3BDD002361450B8032
:103FA00000F10400E9D101F1280C6645CFD1DFF81A
:103FB000D4C00798A6F1240111E0019F131B1F44F0
:103FC000B0F95A30002A0197A2EB030315DD23EA6A
:103FD000E3731BB28E420B8000F1040015D031F95F
:103FE000022F9442E9DB9542C4BF531B9B44B0F9B6
:103FF0005A30002AA2EB0303E9DC002B0CDD00237E
:104000008E420B8000F10400E9D12836B445D0D1AE
:1040100007E7002AABD1A8E7002ADAD1D7E70124C5
:10402000B1E5642360E592F8B430012B1FD092F81B
:10403000B530012B04D192F8B330002B3FF41DAE04
:104040000D4B0E491B68096893F83A0001F12003F3
:1040500002EB4002B2F8A40001F11602097DFEF75E
:104060001BFF044922680968C3B207913CE532236B
:104070003AE500BF74000020DC1D00201804002079
:10408000CC4B00206C510020704700BF054A064B06
:1040900012681B68928DA3F88E21012283F8642593
:1040A000704700BF880500207400002038B51F4B02
:1040B00000211C684FF4777204F5C67003F09CFD74
:1040C00004F5247304F5C071103B8B4227D14FF4E3
:1040D0003E720021164803F08FFD164B186841F21E
:1040E0001453C18D828DA4F88E119142E35C08D2E5
:1040F0006425521A5A43323292FBF5F20A44A4F86C
:104100008E2190F8301090F83120521A53436422D7
:10411000323393FBF2F30B44A4F8903138BDA2780C
:10412000013A9A74E278013A1A74CDE774000020DB
:1041300070510020880500202DE9F04F0F2883B032
:10414000ADF804105AD89DF905509DF904106B1C68
:1041500003EB830301F1010CDFF8B0E00CEB830CFF
:104160000CF5A2633EF91340002C47DD4FF02C08FC
:104170004FF0010908FB00F7224B04FB01FB1E680E
:1041800004FB05FAF319484407F2AA2783F8A002B2
:10419000A3F8A842F15537447D70C3E9AE44C3E9A2
:1041A000ACBAA3F8AC4283F8A15283F8A25283F8C8
:1041B000A31283F8A412A3F8A69282B1002296F863
:1041C0008C3105EBC50508FB036801EB450101F2E5
:1041D00006610EEB8103C8E9B1334EF821202C2192
:1041E00096F88C31084A01FB036393F8A0320CF86F
:1041F000023096F88C31013386F88C3103B0BDE87B
:10420000F08F00BF7400002070510020604100203A
:104210002DE9F0410F2882B09DF820E0ADF80410A0
:1042200074D8002A72DD4FF02C083A4908FB00F8D8
:10423000D1F800C09DF904400CEB0801D1E9AC674E
:1042400002FB04669DF90550C1F8B06205FB0277D8
:10425000D1F8BC62C1F8B4721644C1F8BC62F3BBB9
:10426000D1F8B832B1F8A6621344C1F8B832B1F946
:10427000A83201369342A1F8A66208DA08F2AA2809
:104280000CEB0803A1F8A8220CF808405D702C2361
:1042900003FB00C3B3F9AC129142C8BFA3F8AC2230
:1042A0002C2202FB00C292F9A17292F9A26292F949
:1042B000A312AF4292F9A432A8BF2F46AE42B8BFB4
:1042C0002E46A142A8BF2146A342B8BF234682F88A
:1042D000A17282F8A26282F8A31282F8A432BEF11F
:1042E000000F13D02C23002603FB00C005EBC503F1
:1042F000094A04EB430303F20663D0F8C84202EB19
:1043000083012160C0F8C81242F8236002B0BDE802
:10431000F08100BF74000020604100202DE9F04FC3
:1043200085B0ADF80C305DB20E9C43F30723002A34
:1043300059D1042922605AD0082904D0012843D039
:1043400005B0BDE8F08F5B4F02EB820207EB820104
:1043500091F83C104FEA820C0029EFD04FF0010891
:104360003C3701EB4202544E07EB0C015FFA85FE2D
:1043700007EB42075FFA83FC8A7891F80190624468
:1043800052B20132F1444FFA89F902EB820209EB91
:104390008202B25C0231013A5FFA82F9B9F10F0F81
:1043A0000ED8B4F8009008FA02FA49FA02F2D207DD
:1043B00006D4A2784AEA09090132A4F80090A27052
:1043C0008F42D9D10128BBD1A278012A4AD0B7D9CE
:1043D0003F210133384A03EB830305EB83039954F0
:1043E00005B0BDE8F08F01260429A670A4D131499B
:1043F00002EB420211F822C09200BCF1000F9DD0E6
:1044000000274FF001092C4E11445FFA83FE5FFA3A
:1044100085F88A7891F801A0724452B20132C24400
:104420004FFA8AFA02EB82020AEB8202B25C01378F
:10443000013A5FFA82FABAF10F0F01F102010ED8C8
:10444000B4F800A009FA02FB4AFA02F2D20706D435
:10445000A2784BEA0A0A0132A4F800A0A2706745CC
:10446000D7DB6BE70026218803E00136102E3FF4EE
:1044700067AF41FA06F2D207F7D501210B4403EBEF
:1044800083030D4405EB83050C4B05F5A26233F95C
:104490001220F0B2002300910399FFF7B9FE2C23FC
:1044A0000749084A096803FB061696F8A032AB5480
:1044B00046E700BFB80800007151002060410020AD
:1044C00074000020705100202DE9F04F15460027A0
:1044D0000446B74B461C1B6895B003EB0613084611
:1044E00001220F91D3F8941104970E960B95FFF7C4
:1044F00023FEAF4AAF4B1268196802EB0414B4F8FC
:10450000A8010C8FBA46844204D391F83240002CA3
:1045100040F026810E9B0B9902EB0313B3F8963102
:10452000581A81B200B20D900F98DFF8A0920C904B
:10453000A1485B1AA0EB09011BB205910B999942A6
:10454000B8BF19468B4692F88C310C990793994263
:10455000069159DA2C23069903FB0123D3F8C432C0
:104560000393002B4AD000234FF0FF3219460398E3
:10457000059C07199148BF08A0FB0704A60806EB95
:10458000C60044F38704A7EB400707F58058601C7A
:1045900008F1110800EB8000049408EB8008884CB7
:1045A000F6B2C8445FFA87FA33445BB2524452B25F
:1045B000581C551C00EB800005EB800000F5A2653F
:1045C00039F915C04D1CDC4505DB7E4D405D4D1CA9
:1045D000002800F08A80042D294604F1020404D04A
:1045E00094F9023094F90120DEE7039B1B680393E2
:1045F000002BB8D16E4B4FFA87FA1A68069B0799C1
:1046000001338B420693A5D10E9B02EB031292F964
:10461000911192F9903106919942C0F28480002460
:1046200092F992115E1C01F5805C92F9932106EBE0
:1046300086050CF1100C0CEB850C9B1B09EBC505DA
:10464000DFF88CE1089109920A93CC4405F52265C4
:10465000501C089B099903968B421CDC0A99624600
:104660008F197FB209E0714503F1FF3803DD8E46F3
:104670004FFA88FA049783420DD012F8011F0133D4
:104680000029F8D135F913108B45ECDD8C42B8BF09
:104690000C468342F1D1069B039A0136934205F101
:1046A00028050CF1140CD4DA1EF5004F55D0002269
:1046B000049B8DF844A08DF8453013A9119B0091FF
:1046C000104608211392FFF729FE9DF84E306BBB70
:1046D000079B0E2B2AD81C46012218461199FFF77A
:1046E0002BFD334B0C941A682DE78DF8493013AB32
:1046F00098F800C000930123BDF84E008DF84820C3
:1047000000F4FE4040F001000CF1FF3C03FA0CFC09
:10471000ADF84E0004210120129BEAB2ADF84CC066
:10472000FFF7FCFD57E700240F9B0C930D9B0B9AA2
:10473000ABEB0303934209DDA342A8BF23460B9AC8
:104740001BB25A4506DA1A4A1268F7E60B9A0B9B17
:104750005A45F8DB15B0BDE8F08F0F9B0C93E5E7E9
:10476000C98E3301814213D392F88D111344B3F9EA
:10477000963102290B99A3EB01002BD8011D48BFEC
:1047800000F10B01C8109BB20D90C1F3CF01CBE635
:104790001344B3F996310B980B49181A013081FB79
:1047A0000041A1EBE07108B29BB20D9089B2BBE66B
:1047B0007400002088050020E8E7FFFF398EE33809
:1047C000B808000070510020565555556041002032
:1047D0000080FFFF811C48BF411D88109BB20D90D7
:1047E000C1F38F01A0E600BF2DE9F04F00263E4B3C
:1047F00000F11A021D68431C05EB0014A4F8A8611F
:10480000C4F8AC61100105EB021215F9009092F9A1
:10481000016005EB031392F9027093F9945192F938
:10482000032093F9950185B0B14502960397019253
:1048300083F8925183F8935183F8900183F89101A2
:104840004FDC09F1010907F1004209EB890A274809
:1048500002F5A26202EB8A0200EB420A019A02F11F
:104860000108039A019D09F1FF3EAA42CDF800908C
:104870002FDC554635F9020F1646884202F1010237
:1048800025DB93F992B193F993C1B34593F99071F4
:10489000A8BFB346B445B8BFB44693F99161774514
:1048A000A8BF77467645B8BF764683F892B183F8BD
:1048B00093C183F8907183F89161B4F8A871D4F82A
:1048C000AC6101373044A4F8A871C4F8AC0142458A
:1048D000D0D1029A009809F1010982420AF1280A0E
:1048E000BFDA05B0BDE8F08F740000206041002001
:1048F0002DE9F04FDFF8109100F1010BD9F80030ED
:104900008A4603EB0B1090F9902190F9910187B042
:10491000904230DB0292D2B2039203EB0B1292F977
:10492000925192F99321AA4219DB029B2F4603F17F
:10493000010808EB88084FEA8808EDB2304B7E1C6E
:1049400046449B5D3F2B1AD0D9F80030013503EB6C
:104950000B1292F993216FB2BA42EDB2EEDA0399DB
:1049600003EB0B12013192F9912148B28242C9B294
:1049700002900391D1DA504607B0BDE8F08F0022D3
:10498000029B8DF810708DF8113005A9049B0091E1
:10499000104608210592FFF7C1FC1A4B06F5A266E6
:1049A0000F2403EB460601E0013CCDD3BDF81430E3
:1049B0002341DB07F8D59DF81630B6F900208DF8B5
:1049C000107002EB530292FBF3F2029BE0B28DF8FF
:1049D000113000230499009312B2A245C8BF824649
:1049E000FFF716FC2C22D9F80030BDF8141002FB9A
:1049F0000433B3F8C0220A43A3F8C022D4E700BFAF
:104A00007051002060410020740000200A462DE90A
:104A1000F04F944B9FB01968159091F88C319A42E1
:104A200080F09F8300230D92179309E00D9B0133C3
:104A30001293129A91F88C310D92934240F38E8327
:104A40002C220D9D02FB05F3C818D0F8B8022C46A5
:104A50000028EBD001350F2D1295EADC01200593DB
:104A600000FA04F316931BB20C92089511930FE011
:104A70000122AA4020EA020093F8C222A3F8C00251
:104A8000013A83F8C222089B0133102B0893D0D03F
:104A9000059B089DCB18B3F8C00240FA05F2D70772
:104AA000F1D50C9E06FB0512D2F8B8620696002ED0
:104AB000DED0D3F8B442D3F8B002D2F8B462D3F85F
:104AC000BCC2D2F8BC72D2F8B0524FEA442941F2CB
:104AD000D038440241F2D43E760209EB5C006D020C
:104AE00006EB570604EB5C0405EB5709B6FBF7F63B
:104AF000B0FBFCF5B4FBFCF4B9FBF7F941F2DC3A8E
:104B000041F2D83C584851F80EE0076851F80800C7
:104B1000D7F808807F6875447644044406FB08F69D
:104B200008FB05F507FB04F4814407FB09F951F87C
:104B30000A0051F80C7000EBD07807EBD77C05EB3E
:104B4000680504EB6C0406EB680898FBF0FA95FB2B
:104B5000F0F694FBF7F0049093F9AB0209EB6C09C3
:104B600099FBF7F4039000F1010915981B9600F1E9
:104B70001A08404601EB001604980994DFF8F0B0DB
:104B800092F9ABC293F9AAE21A900998DBF80050A7
:104B900009EB890992F9AA421C900CF101073348EC
:104BA0000EEB8909CDF81C8007EB8707B5F8368036
:104BB00009F2115530F9155004EB8707368907F2D1
:104BC0001157CDF874A0139530F91700464514908D
:104BD00080F0678293F9A35292F9A37292F9A482AA
:104BE00093F9A462AF4292F9A1A23846A8BF284621
:104BF00093F9A15292F9A22293F9A232B045B8BF1B
:104C0000B046AA45A8BFAA469A42B8BF1A4613465C
:104C10000A900E93039B744463445B1010936310DB
:104C20000F930E9B5345C0F2618200235FFA8AF214
:104C300004930393A3F5004309920B930A9B9845B1
:104C400064DB0C9B089A0A9803FB02F30AF1010744
:104C500007EB87070646DFF81C900693BF00C4B237
:104C60000FE000BF74000020840500206041002098
:104C70008805002070510020013466B2B045E4B2CE
:104C800044DB751C3D4419F805303F2BF4D100225C
:104C90000798DBF8003001EB00110989DB8E8DF8F5
:104CA000606099428DF861A019AB104634BF0421B1
:104CB00008210093189B1992FFF730FB0120B54B98
:104CC000069A1968059B8A18CB1892F9A0E293F905
:104CD000A0320EF1FF3E013B00FA03F200FA0EF3A0
:104CE000BDF864001343834305F5A26C00F02F81E7
:104CF000A94B33F91C30049A013401320492039A0F
:104D000066B21A44B0450392E4B2BADA099B0133A1
:104D10004FFA83FADBB209930E9B53458EDA089B58
:104D20000C9A02FB0312059BB2F8A6421944B1F893
:104D3000A692D1F8B832D2F8B81203EB590201EBBF
:104D4000540A06910499B2FBF9F9BAFBF4FA29B1B5
:104D5000039A02EB5102B2FBF1F203920B9A12F5A5
:104D6000004F00F0DA81149A1CA903FB02F8139A91
:104D70001046069A02FB008813441AA80022B8FBCA
:104D8000F3F8FDF7A3FC04461CA91AA8FDF790FC54
:104D9000804BDBF800201968079BD78E01EB0313CB
:104DA0001E897E4BBE4283FB04534FEAE4752344C5
:104DB0008446C5EBA3134FF05A0080F0578100FBE7
:104DC0001343A3F11500302800F2B58192F83C009E
:104DD0000B9C04FB00F4204690FBF8F0089C0C9D13
:104DE00092F83A2005FB0414B4F8A642C1F86025F5
:104DF000012C00F0AD81BCF15F0FA3F10B03D8BF14
:104E0000C820442B1ED8059B0C9CCB18D3F8B86245
:104E1000089B04FB03130AFB06F4D3F8B8526E2375
:104E200009FB0544354404EB5504B4FBF5F403FBDE
:104E300004F35B4C3233A4FB0343039CB4EB531FDA
:104E400088BFC82090427FF71EAE0C9B089A03FBD8
:104E500002F68B1993F9A1A293F9A23253454FF0B0
:104E60000103C0F2838103FA02F2D3431BB204931D
:104E7000169BD046069243EA02095FFA8AFA8B191A
:104E800093F9A34293F9A432A342C0F28B8008F1B4
:104E9000010707EB8707BB0020460393E4B209E054
:104EA0003C4B19688B19013493F9A43260B28342E8
:104EB000E4B277DB039B421C1A44374F02F580555E
:104EC00010358B1917F805C093F9A0329C454AD0CC
:104ED000BCF13F0FE4D10022079FDBF8003001EB6B
:104EE00007110989DB8E8DF8600099428DF8618089
:104EF00019A90091104634BF04210821189B19926A
:104F0000FFF70CFABDF8643039EA030200F0A38021
:104F1000069A134217BF119A9DF866201343049A0C
:104F20001EBF13409DF86620ADF86430012A03D0FF
:104F3000BDF86430002BB3D10023164A19931168D1
:104F4000059B154ACB1893F8A0325355AAE7124B8C
:104F500005F5A26533F915300B9A9342C4BFCDE92C
:104F60000F6A0B93C7E60023059F8DF86000394454
:104F700091F8A012084F8DF86180795502F5A26270
:104F800037F9122018999DF834000093FFF740F983
:104F900086E700BF7400002060410020B7600BB6B8
:104FA0001F85EB518B190AF1010A93F9A2324FFACE
:104FB0008AF843455FFA8AFABFF661AF089B0C9AFC
:104FC0004FF0000C02FB0317059B07F52E77CD1859
:104FD00005F52E7630462A460F23B7F808E03C4602
:104FE000B5F8C07285F8C2C247EA0E07A5F8C072CC
:104FF00005891D41EE0742BF92F8C252013582F881
:10500000C2520D9D9D4211D0089D9D420ED0258912
:105010001D41ED070AD50C9D049F05FB0316B6F84C
:10502000C0523D40119F3D43A6F8C052013BDFD224
:10503000089B0C9A02FB03112C2201F52870002119
:1050400002F0DAFD179B0133DBB217934A4B196864
:10505000129B08931CE59DF866200499013A0B40C9
:10506000D2B2ADF864308DF866205FE7158F00FB93
:105070001343B54228D864200B9C92F83B2000FBD8
:1050800004F090FBF8F0089C0C9D05FB0414B4F8A8
:10509000A642C1F86025012C08BFC820BCF1AF0FA3
:1050A000ABE6A6457346A8BF23460A93039BA645D5
:1050B000F046B8BFA04663451846A8BF60466345A2
:1050C0008246B8BF6346A4E5A3F11F001C283AD866
:1050D00092F83D000B9C04FB00F42046BE4290FB7E
:1050E000F8F0FFF47BAE92F83B20CCE70C9A089BDB
:1050F00002FB0313059AB3F8A6A21144069AB1F86D
:10510000A642D1F8B83202EB5A02B2FBFAFA03EB2C
:1051100054090022B9FBF4F90392109A0F99013255
:1051200002EB820201EB8202144902F2115231F9C0
:1051300012200B9217E6108FB042C5D864200B9C4A
:1051400000FB04F048E664200B9C00FB04F0C5E77C
:10515000BE424FF0C800FFF44EAE9FE7179A9B1A6D
:10516000DBB281F88C311FB0BDE8F08F089A934014
:10517000DB431BB2049321E7740000206041002050
:105180002DE9F04FDFF8688291B0D8F8003093F83D
:105190003330012B02D011B0BDE8F08F914B1A686B
:1051A00092F88C31002BF6D000230D9309E08D4B43
:1051B0001A680D9B013319460D9392F88C318B427E
:1051C000E9DD2C230D9903FB01F3D118B1F8A612E8
:1051D0001029ECD803F2A123D11891F9024091F9DA
:1051E000010091F90310002C0A91C4BF04F1FF31B2
:1051F00049B20894C8BF089191780A9C01398C4241
:10520000B8BF2146D356BCBF013149B2D278B8BF2E
:105210000A91002B02F1FF32C4BF03F1FF335BB2EE
:105220009042BEBF0246013252B20990B8BF099205
:10523000099A9342BBDC1A46059303EB83034FEABA
:10524000830BD3B20393089A674B0A9903EB42038B
:105250000C93089B8B4200F38680634A1C4602F540
:10526000815504351D440C9B5D4403F64A26059B7D
:1052700006EB4B06013307930BF1140306930BF176
:1052800028030B934F1C03E0B31CBC421E4659D0AD
:1052900015F8012FA1460134002AF5D10398D8F85A
:1052A0000010631E8DF839008DF838300FAB91F87F
:1052B0003410104600930E9B0F92FFF72FF89DF8C5
:1052C0003E30002BE0D0022BB6F900207ED002EB5E
:1052D000530E9EFBF3FE0F23059A0FFA8EFE02FB80
:1052E0000EF20EFB09F904923E4ABDF83CA0D2F83A
:1052F00000C04AFA03F212F0010F03F1FF3314D099
:10530000BEF1000F11DDDCF85025DCF848150292E3
:10531000049ADCF844051144029A48447244CCF8DB
:105320004405CCF84815CCF850255A1CACF12C0C8F
:10533000DFD108F0EBFFE8B1B31C1222BC421E46DD
:105340002A70A5D1039B079A0133DBB20393099B13
:10535000DDF818B093420592FFF629AF089B0A9931
:105360008B427FF77AAF059B013307930BF1140350
:105370000693E7E7089AD343AA18D35C23B3089BA4
:10538000C3F10103D35CFBB136F9022CB6F902106C
:10539000B31C0A44013202EBD27252103280069AD8
:1053A000AA1A12F80B100029C7D00B99525C002AD8
:1053B000C3D036F9282CB6F928100A44013202EB82
:1053C000D27252103280B8E7B31CE8E7074B5200A4
:1053D000043283FB023E0EEB02034FEAE27ECEEB89
:1053E000A30E78E7740000206041002093244992C6
:1053F000880500202DE9F0474FF4287800242C2759
:1054000047F6FF762E4D84B028682C2240440021B8
:1054100002F0F2FB2868621C07FB0403144683F8C1
:10542000A0228278102C02F1FF3283F8A322C278E6
:1054300008F12C0802F1FF32A3F8AC6283F8A12234
:10544000E3D1D0F898419CB31E4EDFF880904FF026
:10545000000ADFF87C801C4FA6EB090601E02468F7
:105460002CB3A3199B08A7FB0312920802EBC201FD
:10547000A3EB4101531C481C03EB830300EB8303A4
:1054800018F803000138C0B20F28E8D88DF80D20B5
:105490008DF80C1003F5A26339F91320039900234A
:1054A000CDF800A0FEF7B4FE2468002CD9D12868FE
:1054B00090F88D3180F88C3104B0BDE8F08700BFE2
:1054C00074000020E8E7FFFF398EE33860410020D8
:1054D000705100207047704741F214532DE9F0419C
:1054E00064263949394C08682768C25CFD8DBB8D3C
:1054F0005B1B5343323393FBF6F32B441DB2A0F8EE
:105500008E5197F830C09EB297F83130ACEB030360
:1055100053436FF06302323393FBF2F3B0F980210F
:105520006344551B1BB2A0F890316B43284A06EB2D
:10553000A313A0F8923113680D46D3F89430904627
:1055400013B1002108469847236893F83230012BA5
:1055500035D14FF43E7200211E4802F04DFB00266B
:105560002B68F4B293F88D21A24210D8D8F80030FD
:10557000D3F89C3013B10021084698472B6893F864
:105580008C31042B1ED8BDE8F041FFF7F9BDB3F90B
:105590009211204693F88C71FFF726F92B68394653
:1055A000B3F992212046FEF78FFF39462046FFF7D8
:1055B0009FF901462046FFF729FA0136D0E7FFF7A9
:1055C00019FFD3E7BDE8F0817400002088050020B2
:1055D0000C0000207051002008B5FEF767FD054B58
:1055E0001B6803F5A7531B781BB1BDE80840FFF704
:1055F00073BF08BD7400002070B54FF4336440F2EF
:105600001C66354B354A364D1A602868B422002195
:10561000304402F0F1FA286850220021204402F0C0
:10562000EBFA286804F5C87350220021184402F0F0
:10563000E3FA2868A4F5C8735022002118445034B6
:1056400002F0DAFAB4F54C6F06F1B406DDD12C683D
:10565000B422002104F5AD6002F0CEFA214B41F2F4
:10566000D0321968204891F84130006823714FF416
:105670008073A35041F2D432A3504FF4407304F529
:105680009F52136041F2E432A35041F2E832A3503A
:1056900041F2EC32A350A278E378067D41F2D8358E
:1056A00041F2DC3052025B0296B16351225041F26A
:1056B000703291F840305B02A35004F69C73C4F83A
:1056C000503E41F2E6020023A352A4F89E3F70BD73
:1056D00062512350EBE700BFC41A00207859002024
:1056E00074000020880500203008000010B5084B29
:1056F0004FF4A4721C68002104F69C7002F07CFA3E
:1057000004F21C60B422BDE81040002102F074BA1B
:105710007400002038B5154B4FF4B2721C6800219C
:1057200004F5287002F068FA6FF00045FF20611E52
:1057300004F5207204F5307401F8010F0874A2F525
:1057400020731D6240339342FBD11A1DA242F3D154
:10575000074B00211B6803F59C5213461B32113383
:10576000934200D138BD02F80119F9E7C41A0020AC
:10577000740000202DE9F84F1024434FDFF80C810E
:10578000013C01D2BDE8F88F2C2565433E687319B2
:10579000D3F8B8020028F3D0D3E9AC21D3F8BCC2C7
:1057A00041F2D43A41F2D03E4902520201EB5C018F
:1057B00002EB5C02B1FBFCF1B2FBFCF24FF0640CBB
:1057C00041F2155BD8F8009056F80AA056F80EE0A2
:1057D00099F8A0625144724409EBC60EDFF8B0A0FC
:1057E00009EB4609D3F8BC62CEF8A812B3F9A812A7
:1057F000CEF8A422B3F8A6220CFB00F00CFB06F6B0
:10580000DAF800A00CFB01FCA9F844231AF80B20DD
:10581000B0FBF2F0B6FBF2F69CFBF2FCC3E9AE067D
:10582000A3F8A8C208F072FDD8F800303A6893F8DF
:10583000A012154428BBD5F8BC2203EB4103A3F802
:1058400024232C233A68D8F8001003FB042391F892
:10585000A022B3F8A8C2B3F8AA62B3F8AC52D3F846
:10586000A10201EB820E01EB42030132CEF8640388
:10587000A3F8A4C3A3F8C463A3F8E45381F8A02257
:105880007EE7D5F8B822D8E774000020C41A0020BB
:10589000E81D0020114B10B5196841F2DC33CA58DD
:1058A000992392FBF3F3446803EB43031BB29C423E
:1058B0000EDB121B93420DDC026893420CDC41F2BA
:1058C000D8300858801A8342CCBF0420002010BD75
:1058D0000120FCE70220FAE70320F8E7740000202B
:1058E0002DE9F84F504BD3F80090D9F8506E06EBE5
:1058F0004008B8F85830FBB141F2483347004F44F4
:10590000FB5ACBB941F29C3B09EB000515F80B3073
:1059100004468A4633B9013006EBC000FFF7BAFFF0
:1059200005F80B0041F2E243EA5C012A06D8B8F818
:105930005830B3EBAA0F03DCBDE8F88F0C2A18D15E
:1059400041F29C33EB5C002BF6D0B7F8CC35002B42
:10595000F2D104F1AD02013409EBC20306EBC40439
:1059600094E8030083E80300B8F86C30A7F8CC355E
:10597000E2E70A2A07D104F1AD03601C09EBC30377
:1059800006EBC004ECE70D2AD6D141F2923C15F8A3
:105990000C30002BD0D141F29C33E95C01291FD19E
:1059A000B7F8CC35002BC7D006EBC40609EBC40909
:1059B000D9F86C35F2686FF48070D21A40F6FE6345
:1059C00002449A42B8D8D9F86825B3689B1A41F6C0
:1059D000FE7203F6FF739342AED805F80C10ABE7E6
:1059E0000229A9D1B7F8CC35002BA5D009EBC40307
:1059F00006EBC404E168D3F86C25521A6FF4807189
:105A00000A4440F6FE618A4296D8A268D3F8683507
:105A1000D31A41F6FE7203F6FF7393429EBF41F222
:105A200092330122EA5487E77400002070472DE981
:105A3000F04FA44F4FF0FF333C46002589B0DFF80C
:105A400090A20193DAF800203B681278AA424CDC5D
:105A500041F2E4029B5C012B00F090804FF0FF3894
:105A6000002302934FF0FF356FF0004BA94600264C
:105A7000DAF8003022681B78B34200F3AF80681C6C
:105A800000F0128141F274335019C65C012E40F0CF
:105A9000EF80FBF7ABFD41F2703201280CBF06200E
:105AA0000A2023689B5843439B4500F38D81B9F13D
:105AB000FF3F00F08981844B1A68DAF8003002EB6E
:105AC00089001E7800239E4200F1400000F3EE8022
:105AD000002002EB851392F8A0622033864200F387
:105AE000EB80914489F81050BCE703EB4502B2F813
:105AF0003427B2B141F2E2422B449B5C019ADFF8B9
:105B0000C8810D2B08BF2A46C146002601924FEAE4
:105B1000C50BD8F8000090F8A03200EB4602B34263
:105B200001DC01358EE7B2F8443313B3236803EB8D
:105B30004502B2F8E8275B44D3F8D0C6D3F8D416B0
:105B4000CAB1D3F88427D3F88837C2EB4C02C3EB31
:105B50004103CDE9062300EBC60000F5297006A934
:105B6000FCF7A6FDD9F8002006EB0513083342F830
:105B700023000136CDE7CDE906C1ECE7524D2B6895
:105B800093F8A032012B7FF669AF08F0BFFB002825
:105B90007FF464AF4FF0FF384FF00A0C29683B6880
:105BA000019A03F59B5301EB8215484E91F8A072C0
:105BB0001033203501F5697187427FF751AF1A68BC
:105BC00055F804EB0CFB02F2964505DC31F9102088
:105BD000B242C4BF164680460130EDE702EB4602F2
:105BE000B2F83437002B39D03301002703932FE06C
:105BF00003EB4700B0F8440348B30399C8190830D1
:105C000053F820104B1C22D0012A14D141F2E40297
:105C100023689A5C012A0ED1CDE9042108F076FBB5
:105C2000059940B941F2E242236833449B5C049AEF
:105C30000D2B02920BD1B8F1FF3F13D041F2E2429B
:105C4000236833449B5C0D2B0AD147450AD00137AA
:105C50001D4B1B6893F8A022BA42C9DC013607E746
:105C60004745F4D08B45C2BF8B463546B946EEE773
:105C7000029B02F59B5010303BB9B8F1FF3F11D0A9
:105C8000C1450FD1019B9D420CD10A2300684343BB
:105C9000012E7FF609AF05F2EA4052F8202003EB0F
:105CA000420301E70368F3E70023FDE64FF0FF310D
:105CB000013340F8201C06E74FF0FF31013043F874
:105CC000041B0BE774000020C41A00200080FFFFB3
:105CD0008805002097F91030591C03F1010E03F1DB
:105CE0002A0903F2EA4803F1DA0735D0DAF8641337
:105CF000D2F8506E0191D0F8A812D0F8A40206EBA9
:105D0000CE0EBBF8C4A3BCF844B38EE80300BCF8C5
:105D1000240306EB4303BCF8A413BCF8E4C3A3F8C4
:105D200058000198A3F86CB046F82900A3F8D010E9
:105D3000A3F8E4A0A3F8F8C052F8289006EBC70136
:105D4000A1F5D96102EBC700B9F1000F36D1FCF71C
:105D5000AFFC236843F828000135484B22681B68D4
:105D600093F8A06203EB450CAE42E34603EBC5009B
:105D700003EB850A03EB0507ACDCC3F529711D466F
:105D800003F1100803F54974DFF8F4B003EB860360
:105D900002910193DBF800301978019BAB4215D1D9
:105DA0008E4228BF0E46002002F59B5382F89C6F5E
:105DB0001433884251D109B0BDE8F08FFCF778FC6C
:105DC000484423684008C5E70025C6E718F9013BA9
:105DD00001333DD1B4F82090B9F1000F38D0002341
:105DE00002F234708B4233DA30F802CB5F1CBCF124
:105DF000000F30D1D2F850EE0EEB430CBCF86CA083
:105E0000BAF1000F27D1029908F8013C0EEBC70741
:105E100001EB450103C987E80300ACF86C902188C9
:105E200003F12A00ACF85810B4F98010D5F8647367
:105E300003F2EA434EF82070ACF8D010B4F8A0108A
